:400000000080002011000000950C0000950C000008B5044B1A6803F53F5302331A6000F059FE00BFFA46004010B5054C237833B9044B13B10448AFF300800123237010BDDE
:400040008082FF1F000000003C230000084B10B51BB108490848AFF300800848036803B910BD074B002BFBD0BDE81040184700BF000000008482FF1F3C230000C880FF1FD2
:400080000000000008B503281BD8DFE800F002080E1400F08BFE012815D0002008BD00F093FE012811D0002008BD00F095FE01280DD0002008BD00F097FE012809D0002091
:4000C00008BD002008BD012008BD012008BD012008BD012008BD00BF38B504460D46032824D8DFE800F00209101E084600F084FE104B1D55002038BD084600F089FE0D4B9F
:400100001D55002038BD084600F08EFE094B1D55002038BD29462046FFF7DEFF0134E4B200E00024022CF5D9002038BD6FF0130038BD00BF9C82FF1F38B50024254609E044
:400140000021094B19552046FFF7C6FF00B105460134E4B2022CF3D900F094FF00F050FF00F0FEFE284638BD9C82FF1FF8B5044600F004FF00F0F4FE00F042FF00F082FFFF
:400180000A4D660032195300EF18E85C00F0C8FE787800F015FFB87800F054FF0022B988032000F0F1FF0020F8BD00BF4023000010B5044601F032FD642001F009FD20460F
:4001C00001F00CFD002010BD10B5044601F068FD642001F03FFD204601F042FD002010BD10B5044601F0A4FD642001F075FD204601F078FD002010BD10B501F0CDFC2F4B45
:40020000DB78032B57D8DFE803F0021229402B4CA088013080B2A080C0B2FFF7C9FFA388632B48D90122E2700022E28043E0234CA088013880B2A080C0B2FFF7B9FFE088E5
:40024000013080B2E080C0B2FFF7BEFFE388632B31D90222E2700022A2802CE0174CE088013880B2E080C0B2FFF7AEFF2089013080B22081C0B2FFF7B3FF2389632B1AD92E
:400280000322E2700022E28015E00C4C2089013880B22081C0B2FFF7A3FFA088013080B2A080C0B2FFF784FFA388632B03D90122E27000222281002010BD00BF9C82FF1FEA
:4002C0000F290ED838B50C46054600F05DFD064B185D064B5C55064B585500F061FD002038BD6FF01300704778230000CC80FF1FA882FF1F08B5FF22044B1A5400F044FDA1
:40030000002000F04DFD002008BD00BFCC80FF1F08B50020FFF7EEFF0120FFF7EBFF002008BD00BF30B583B0002502AC24F8045D0A22214601F0FFFE00F0B2FD054800F02B
:40034000C9FD204600F0C6FD034800F0C3FD284603B030BD90230000DC23000008B500F09FFD024800F0B6FD002008BDB023000010B582B00C4B1B788DF804300024ADF892
:4003800005400A2201A901F0D6FE00F089FD074800F0A0FD01A800F09DFD054800F09AFD204602B010BD00BF8C230000E0230000DC23000010B586B00024019402940394CE
:4003C000049405940A2201A901F0B5FE00F068FD074800F07FFD01A800F07CFD054800F079FD054800F076FD204606B010BD00BFF4230000DC2300000C24000010B586B0E4
:400400000024019402940394049405940A2201A901F091FE00F044FD074800F05BFD01A800F058FD054800F055FD054800F052FD204606B010BD00BF4824000060240000E6
:400440006424000008B500F02BFD054800F042FD044800F03FFD044800F03CFD002008BDA02400009C2400006424000008B500F017FD024800F02EFD002008BDC4240000D2
:4004800008B500F00DFD054800F024FD044800F021FD044800F01EFD002008BDE82400009C2400006424000008B5002000F0EAFF08BD00BF684620F007018D4619B572B674
:4004C000EFF311841E4B1B68DBB20F2B10D9103B23F0030202F1604202F564421168DB0003F01803E0229A400A4022FA03F306E00F2B03D1134B1B681B0E00E0002383F343
:400500001188114A136801331360012B01D101F05BFC62B6FFF7C8FF72B684F3118801F0ABF9094A1368013B13601BB901F055FC01F019FC62B6BDE819408546704700BFCD
:4005400004ED00E020ED00E04C83FF1F08B562B645F6BF52074B1A60043B1A6842F002021A601A6842F005021A60002001F072FA00BEFDE714E000E008B5FFF7DDFDFFF7C7
:40058000C7FE002000F0E8F801F0C8FA01221146104600F0F9FD00220121032000F0F4FD0A221146022000F0EFFD012000F078FD022000F075FD01F093FA08BD00B583B01F
:4005C00000230193072001F083F801A9012000F0DFFF019800F0AEFF019B13F0010F02D0002000F0CFF9019B13F0040F02D0022000F0C8F9019B13F0020FE3D0012000F0BE
:40060000C1F9DFE708B5FFF7F7FD01F069FA08BD08B5094B1878082804D900201870FFF7A5FD05E0FFF7A2FD034A13780133137001F056FA08BD00BFAA82FF1F00BFFDE7D1
:4006400008B5022000F016F908BD00BF08B500F0B5FB01F09BFA012803D100220C4B1A7002E001220A4B1A700020FFF70BFD012803D10121084600F0ABFF0120FFF702FD16
:40068000012803D10121084600F0A2FF08BD00BF3C83FF1F684620F007018D4619B572B6EFF311841E4B1B68DBB20F2B10D9103B23F0030202F1604202F564421168DB0050
:4006C00003F01803E0229A400A4022FA03F306E00F2B03D1134B1B681B0E00E0002383F31188114A136801331360012B01D101F06BFB62B6FFF7AAFF72B684F3118801F0F2
:40070000BBF8094A1368013B13601BB901F065FB01F029FB62B6BDE819408546704700BF04ED00E020ED00E04C83FF1F08B5084B18780130C0B21870064B1B78984205D8E7
:40074000FFF7F0FDFFF70AFE014B187808BD00BFAC82FF1FCE80FF1F10B5064B00245C70DC621C700A22044B1A70FFF7DFFF204610BD00BFAC82FF1FCE80FF1F08B501F07F
:40078000EFFC064B83FB0032C317C3EBA21340F6B83202FB1303581C08BD00BFF119760508B5FFF76DFE0C4B93F901303BB90A4B1A7803EB82034FF47A725A6008E0064ABF
:4007C000013B5370137802EB83024FF47A735360FFF7ACFF002008BDAC82FF1F08B5034B5878FFF7C5FD002008BD00BFAC82FF1F08B50023184606E0084A02EB8302526823
:4008000010440133DBB2064A12789342F4D3B0FBF2F0FFF7CFFD002008BD00BFAC82FF1FCE80FF1F08B5044A537801335370FFF77DFF002008BD00BFAC82FF1F08B5054B46
:4008400093F9013013B1013B024A5370FFF76EFF002008BDAC82FF1F044B1A78044B1B789A4201D80020704701207047AC82FF1FCE80FF1F08B5012806D010B1022807D0BB
:4008800014E00C4BD86A08BD00200A4BD86208BD084AD36A0133D362B3F57A7F03D90421012000F095FE034BD86A08BD014BD86A08BD00BFAC82FF1F08B50020FFF7DAFFD5
:4008C00008BD00BF10B5FFF7F7FF104B1A78104B1B789A420DD10446FFF7C8FD2046FFF78DFD0C4B1A7803EB82035C60FFF79AFF09E0FFF7A7FD074B1A7803EB82030022A0
:400900005A60FFF79BFF002010BD00BF3C83FF1F3D83FF1FAC82FF1F08B50120FFF7AAFF002008BD38B501F01BFC144C204003D5013860F0010001300130C4B2012C02D06A
:40094000022C0BD015E000200D4B18702146FFF7B7FC21460120FFF7B3FC0AE00125084B1D7021460020FFF7ABFC21462846FFF7A7FCFFF7D1FF002038BD00BF010000809F
:400980003D83FF1F10B50446304B93F83030012B11D013B1022B17D055E0002853D1FFF7EDFE00220146104600F0EEFB0122274B83F8302047E0012845D1FFF7B3FF022273
:4009C000224B83F830203EE0E8B9FFF745FF01280ED103221D4B83F830200020FFF78AFC0120FFF787FCFFF7F9FEFFF701FF0AE0FFF768FF0020154B83F83000FFF77AFC6F
:400A00000120FFF777FC022C1DD1FFF725FF01280ED103220D4B83F830200020FFF76AFC0120FFF767FCFFF7D9FEFFF7E1FE0AE00020064B83F83000FFF75CFC0120FFF7A3
:400A400059FCFFF7ADFE002010BD00BFAC82FF1FFEE700BFF0B40022174611E050F82760F3B226F0FF0608E001EB420511F812406D78A5550132013BDBB2002BF4D10137C8
:400A80001F2FEBD9F0BC7047064B1B78DBB203F00701054A11701B09013213704422034B1A707047CF0100496E5800407658004008B50A46002101F04BFB08BD38B502234D
:400AC000274A1380182227490A7002310B8002310A70192502310D8002310A70224A137008224FF040231A70032103F5007319701E4B1B78DBB21E490B701E4B1A8041F2BA
:400B00005122023B1A8000240CE01B4B1B7803F0010343EA440404F003044FF4F07001F0DBF9013D0DB1032CEFD115B90320FFF78FFF124B4FF480721A8007221A70002232
:400B40000F490A704820023108701A700222033B1A700C4A137843F00703137038BD00BF80400040824000400043004008010049A1460040224200402542004004400040F8
:400B800006400040A243004008B501F0D6FA08BD38B572B600240CE02C4D630019194A0011462A44084691882858FFF781FF0134E4B2062CF0D926494FF09040FFF74AFF25
:400BC000244A137843F0020313701032137843F002031370204C237843F040032370A2F58632513A137843F01003137008221B491B48FFF7C9FF0A221A491B48FFF7C4FF21
:400C000008221A491A48FFF7BFFF082219491A48FFF7BAFF082219491948FFF7B5FF194A137843F008031370174D61232B70FFF745FF81232B700122144B1A70FFF724FF0D
:400C40000E2221461248FFF79FFF38BDF82400008000004803500140A04300404C0700480251004054070048C05100406007004812510040680700482251004070070048C2
:400C800032510040224300400048004004000840B043004008B501F00BFA03680C2B00D1FEE7FEE708B5094B1A681044084BC31A802B02DC054B186005E001F0F9F90C2376
:400CC00003604FF0FF32104608BD00BFD080FF1FF086FF1F08B5104E104D16E029686B68AC68002204E051F8040B43F8040B0432A242F8D1E868002203E0002143F8041B04
:400D000004328242F9D11035013E002EE6D101F0D5F9FFF71BFCFEE7010000006828000008B5104A104B1A60104A136843F40073136000230AE0032B03D80D4A52F823107C
:400D400000E00C490C4A42F8231001332F2BF2D90A4B1A780A4B1A70074A0A4B1A60FFF717FF08BD0004FA050CED00E014ED00E000000000950C00000080FF1FBC760040FD
:400D8000C080FF1F08ED00E0044A137803F0DF03400100F0200018431070704730510040014B1870704700BF79650040024B1878C0F3C000704700BF015100400122014B7F
:400DC0001A60704780E200E0024B1878C0F30010704700BF01510040024B1878C0F34010704700BF01510040024B1878C0F38000704700BF31510040044A137803F0BF031A
:400E0000800100F0400018431070704700510040044A137803F0FE0300F0010018431070704700BF20510040044A137803F07F03C001C0B218431070704700BF00510040BB
:400E40007222084B1A70202203F201131A700622613B1A70472210331A70022252331A70704700BF8864004010B501F03DF804460A4A137843F02003137002F20112137854
:400E800043F0100313700132137843F01003137000F06EFE204601F02BF810BD9864004008B5054B1B7823B9FFF7CAFF0122024B1A70FFF7D9FF08BDDD82FF1F034B1B78DD
:400EC00013F0040FFAD1024B187070476A6500404A65004038B5074B1B782BB938BDFFF7EDFF0134A4B201E005460024285D0028F5D138BDDD82FF1F024A137843F08003AD
:400F00001370704774640040014B1870704700BF06650040014B1870704700BF46650040014B1870704700BF2665004008B50B4A137803F0C00343F00903137002F5917211
:400F4000137843F001031370FF20FFF7DDFFFF20FFF7E0FF0020FFF7E3FF08BD7464004008B5054B1B7823B9FFF7E0FF0122024B1A70FFF7C1FF08BDDF82FF1F054A137853
:400F800043F0020313701032137843F002031370704700BFA2430040024A137843F080031370704778650040014B1870704700BF07650040014B1870704700BF4765004043
:400FC000014B1870704700BF2765004008B50B4A137803F0C00343F0090313701F32137843F001031370FF20FFF7DEFFFF20FFF7E1FF0020FFF7E4FF08BD00BF78650040AF
:4010000008B5054B1B7823B9FFF7E0FF0122024B1A70FFF7C1FF08BDE082FF1F024A137843F080031370704777650040014B1870704700BF03640040014B1870704700BF4C
:4010400043640040014B1870704700BF2364004008B50B4A137803F0C00343F009031370E43A137843F001031370FF20FFF7DEFFFF20FFF7E1FF0020FFF7E4FF08BD00BF9C
:401080007765004008B5054B1B7823B9FFF7E0FF0122024B1A70FFF7C1FF08BDE182FF1F38B5EFF3108572B604284ED82D4B53F82030002B4BD02B4A013B42F820302A4BE6
:4010C00053F82030032B07D10222274B43F820200022264B43F8202000F03EFC244B1B68002B36D1234B1C6800F014FCB0F1FF3F31D0214B53F82020204B1B689A422CD94A
:40110000B4F1FF3F03D00221174A42F824101C4A52F820201343194A13600022124B43F8202000F0B3FB174B53F820304BB10024144B43F8204040F0004000F057FE204621
:401140000CE000F053FE002008E0032006E0042004E0002002E0002000E0002085F3108838BD00BF2881FF1FD481FF1F0C83FF1F4C83FF1FBC81FF1F242700002883FF1F00
:4011800004270000E482FF1FF8B5EFF3108472B6032825D800EB4005AB00184DEB5803EB4306B500164E75598D421BD34AB103EB43039E00124B1E44B3689A4214D395426E
:4011C00014D3A9B103010F4DEB589BB90301EE180127EF507260013900F086F800200AE0032008E0082006E0082004E0082002E0082000E0072084F31088F8BD80260000FA
:40120000D02600007C83FF1F18B108B5C368984708BD704708B508B1406800E00020042816D80C4B53F8203093B10A4A013B42F82030094B53F82030032B07D10222064B9D
:4012400043F820200022054B43F8202000F084FB08BD00BF2881FF1FD481FF1F0C83FF1F18B1034640689B6801E00023184604281DD80F4A52F82020CAB10E4A52F82010BC
:40128000032914D010B50C4C54F820201A4344F820200A4A52F82020134207D0012905D10222044B43F8202000F056FB10BD7047DC260000D481FF1F0C83FF1FF882FF1F25
:4012C00080B108B50378012B06D013B1032B06D008BDFFF79FFF08BDFFF7C2FF08BDFFF793FF08BD704700BF30B400EB40029300214AD258214B03EBC2035C68B4F1FF3F5F
:4013000004D11E4B03EBC20250602DE01C4B03EB04139B6899420AD2184D05EBC2025060174A02EB04125B1A93601DE01C46144B03EB04139A68891ADB68B3F1FF3F05D0E3
:401340000F4A02EB031292689142EFD2B3F1FF3F05D00B4A02EB031295686D1A9560084A02EB0414E0601C46054B03EB00108160C46030BC704700BF80260000E480FF1F27
:401380007C83FF1F38B5394A02EBC0035C6852F83030013342F8303000EB40018A0034498A58934203D90022304B43F83020B4F1FF3F59D02F4B03EB04139B68002B4ED1EE
:4013C000214600E019462B4B03EB0113DB68B3F1FF3F05D0274A02EB03129268002AF1D0244A02EB01114FF0FF32CA601F4A02EBC0004360B3F1FF3F07D01E4A02EB031399
:401400009A68013A9A6000E02C4604EB44029300194A13441B7A7BB904EB44029300164A13445A68154B53F8223003EB83039A0013481044FFF744FF0E4B03EB0413DD6801
:40144000596821B101392046FFF74EFF03E024010022084B1A51B5F1FF3FD5D138BD054A02EB0414013BA36038BD00BFE480FF1FD02600007C83FF1F80260000C026000027
:401480003026000038B5EFF3108572B6002838D1FFF778FF204B1B68002B34D11F4B1C6800F038FAB0F1FF3F2FD01D4B53F820201C4B1B689A422AD9B4F1FF3F03D002210B
:4014C000194A42F82410194A52F820201343154A13600022144B43F8202000F0D7F9144B53F820304BB10024114B43F8204040F0004000F07BFC20460AE000F077FC00208F
:4015000006E0032004E0002002E0002000E0002085F3108838BD00BF4C83FF1FBC81FF1F242700002883FF1FD481FF1F04270000E482FF1FEFF3108372B6114A1168114A8E
:40154000126882B9B1F1FF3F0FD00F4A52F821206AB110B40D4C54F8212022EA000044F82100002007E0022002E0022000E0012083F31088704783F3108810BC704700BFA2
:40158000BC81FF1F4C83FF1FDC2600000C83FF1F04280FD80B4B53F820306BB10A4B53F82030032B0AD059B1084B53F820300B600020704703207047012070470720704752
:4015C0000E207047DC260000D481FF1F0C83FF1F38B5EFF3108472B6042853D8324B53F82030002B50D0314B53F82030032B4DD02F4D55F820200A4345F820202D4A52F8A9
:401600002020114244D0012B44D10222274B43F8202000F0A1F9284B1B68002B3CD1274B1D6800F077F9B0F1FF3F37D0244B53F82020244B1B689A4232D9B5F1FF3F03D032
:4016400002211A4A42F825101F4A52F8202013431C4A13600022154B43F8202000F016F91A4B53F820304BB10025184B43F8205040F0004000F0BAFB284612E000F0B6FB11
:4016800000200EE003200CE001200AE0072008E0002006E0002004E0002002E0002000E0002084F3108838BDDC260000D481FF1F0C83FF1FF882FF1F4C83FF1FBC81FF1FC1
:4016C000242700002883FF1F04270000E482FF1F38B5EFF3108472B6364B1D68364B1B68002B5DD1B5F1FF3F5CD0344B53F82530002B59D0324B53F82530034256D1314BB1
:4017000043F825000122304B43F825202F4B53F825002F490B6823EA00030B602D4B43F825202D4B53F82520224B1A6000F0F2F8B0F1FF3F06D0294B53F82020244B1B6874
:401740009A420DD81B4B1868B0F1FF3F03D000221D4B43F8202040F0004000F047FB1AE00021194A42F82010184A52F820201343174A136000F08AF8164B53F8203043B109
:401780000022144B43F8202040F0004000F02EFB01E000F02BFB00200A4B43F8250006E0022004E0022002E0012000E0002084F3108838BDBC81FF1F4C83FF1FDC26000079
:4017C0000C83FF1FF882FF1FD481FF1F042700002883FF1FE482FF1FC081FF1F2427000008B500F053F8084B53F8203043B10022054B43F8202040F00040044B186008BD4C
:40180000024B186008BD00BFE482FF1F5083FF1F10B500F07FF8124B1B68B0F1FF3F1AD0104A52F82010104A1268914213D9B3F1FF3F03D002240D4941F8234000210B4B6A
:4018400043F820100A4B53F820301A43064B1A60FFF7C6FF10BD43F00043064A136010BDBC81FF1F242700002883FF1FD481FF1F042700005083FF1F034B1B6813B10022A2
:40188000014B1A60704700BF4083FF1FF0B4184B19880B0A174AD356B3F1FF3F01D1535601E008335BB2144D55F82320134850F82200134E56F8224045F82340114D2F68E2
:4018C00046F822702A60B4F1FF3F09D10E4A42F82340012202FA03F321EA0301044B19800A4B19680A4A42F820101860F0BC70472483FF1F242500007C81FF1F5483FF1F43
:401900000081FF1F2083FF1F3C81FF1FBC81FF1FC081FF1F0C4B1A88130A0C49CB56B3F1FF3F01D18B5601E008335BB2B3F1FF3F06D0074A52F82320064B53F8220070475D
:401940004FF0FF30704700BF2483FF1F242500007C81FF1F5483FF1F30B4144B53F82020134C2368134951F823502560124C44F823004FF0FF3441F82340104951F8221071
:40198000A1420AD10E4951F820400E480188214301800D4941F8223002E0064840F82130064941F8223030BC704700BF1481FF1F2083FF1F0081FF1F5483FF1F3C81FF1FEC
:4019C000242700002483FF1F7C81FF1F10B150F8210070474FF0FF30704700BF0122014B1A60FEE74883FF1F70B50546124B53F8306000241CE0104B03EBC5032146586840
:401A0000FFF7E4FF0D4A52F82030013B42F820300B4B53F82030032B07D10222084B43F820200022074B43F82020FFF795FF0134B442E0D370BD00BF242600002881FF1FD9
:401A4000D481FF1F0C83FF1F18B908B5FFF7CCFF08BD7047194B1A4ADA621A4A9A631A4ADA63EFF3108272B6184B1B6813BB10B5044600F053F8164B1C600122134B1A6003
:401A80002046FFF7E1FFFFF745FFB0F1FF3F0ED0104B53F82030104A11680B43136000220E4B43F82020FFF7F1FE00F09FF962B6FFF794FF82F31088072070470080FF1FDC
:401AC000AD1D0000711D0000B50400004883FF1FE884FF1F042700002883FF1FD481FF1F08B5EFF3108272B6094B1968094B1B6833B94FF0FF30084B43F82100002000E0ED
:401B0000022010B9084600F0CAF982F3108808BDBC81FF1F4C83FF1FEC80FF1F38B50F4B1D68EFF3108472B600F010F90C4A136843F07F4313600B4B2B640B4B1A6822F0AA
:401B4000E0021A601A6842F020021A60074A136843F00103136084F3108838BD08ED00E020ED00E09506000000E400E000E100E0054A137843F0040313701032137843F0C6
:401B800004031370704700BFA2430040014B1878704700BF62640040054A137843F0010313701032137843F001031370704700BFA2430040024A137843F08003137070472B
:401BC00072640040014B1870704700BF02640040014B1870704700BF42640040014B1870704700BF2264004008B50B4A137803F0C00343F0090313702032137843F0010376
:401C00001370FF20FFF7DEFFFF20FFF7E1FF7F20FFF7E4FF08BD00BF7264004008B5054B1B7823B9FFF7E0FF0122024B1A70FFF7C1FF08BD3083FF1F024A137843F0800304
:401C40001370704779640040014B1870704700BF09650040014B1870704700BF49650040014B1870704700BF2965004008B50B4A137803F0C00343F00903137002F59072B7
:401C8000137843F001031370FF20FFF7DDFFFF20FFF7E0FF7F20FFF7E3FF08BD7964004008B5054B1B7823B9FFF7E0FF0122024B1A70FFF7C1FF08BD3183FF1F024A137832
:401CC00043F080031370704775640040014B1880704700BF08680040014B1880704700BF88680040014B1880704700BF4868004008B50E4A137803F0C00343F009031370E5
:401D00001F32137843F0010313700132137843F0010313704FF6FF70FFF7D8FF4FF6FF70FFF7DAFF7F20FFF7DDFF08BD7564004008B5054B1B7823B9FFF7DAFF0122024B87
:401D40001A70FFF7BBFF08BD3283FF1F18484FF47F0102680A43026016486FF07F4102680A400260704714484FF080510160704772B611484FF000610160FFF749FD0F4872
:401D8000006800F0D5F858B10C4800684FF080730B4A0C490FB40FB46FF00600004700BF6FF0060062B6004762B600DF08B0704720ED00E01CED00E004ED00E05083FF1FAA
:401DC000ED1D0000A91D0000EFF30880054908600548006880F3088870470248006880F3088870471482FF1F0882FF1F411C8900154A11440968154A136899421AD0F0B46E
:401E000044464D4656465F46F0B400B5104C9B002344EFF308851D60116089002144096881F3088802BC8E46F0BCA046A946B246BB46F0BC002806DB00B500F06DF802BC44
:401E40008E46FFF7D3BF7047602700002C83FF1F0C82FF1FF0B444464D4656465F46F0B400B5EFF3038308B48000174901440968164A0244EFF308831360884714488047C2
:401E800004BC4FF08070024382F3038801BC8646F0BCA046A946B246BB46F0BC704780000A4901440A6882F3088804BC4FF08070024382F3038808BC9E46F0BCA046A9469C
:401EC000B246BB46F0BC7047382700006883FF1FF91E0000000000000230800803D000BF01380046FCD17047EFF3108072B6704780F31088704700BF08B572B6014B186835
:401F0000FFF7CDFFBC81FF1F08B5024B1868FFF7A1FF08BDBC81FF1F08B562B6FFF7F4FF72B600F041F8014B186808BD5083FF1F00280BDA20F000400130054B53F820006A
:401F4000044B1B68181A18BF0120704701207047602700002C83FF1F054B53F82020054B53F820309A4201D101207047002070472881FF1FF026000008B5FFF787FC084BF9
:401F800053F8203043B10022054B43F8202040F00040044B186008BD024B186008BD00BFE482FF1F5083FF1F38B5364B1C680022354B1A60354A52F82430013342F82430FE
:401FC000334B53F824502046FFF7C6FF012801D0A54204D103222F4B43F8242003E002222C4B43F824202C4B53F824102B4A136823EA010313602A4B53F82440214B1C603C
:40200000B5F1FF3F0FD0234B53F82530032B07D10222204B43F825200022224B43F825202846FFF799FCFFF775FCB0F1FF3F0BD1B4F1FF3F03D00022164B43F8242044F0A4
:402040000044194B1C6038BD184B53F82020134B1B689A4208D800220E4B43F8242044F00044114B1C6038BD00210A4A42F82010094A52F820201343084A1360FFF77CFF35
:4020800038BD00BFBC81FF1F4083FF1F2881FF1FEC80FF1FD481FF1F042700002883FF1FC081FF1F0C83FF1F5083FF1F24270000014B1868704700BF7882FF1F0E4B70B558
:4020C0001E460E4C0025E41AA410A54204D056F8253098470135F8E700F0B4FB084B094C1E46E41AA4100025A54204D056F8253098470135F8E770BD502800005028000008
:402100005028000058280000931E222B10B50C4602D90020087010BD0A2A06D1002804DA2D230B704042012100E00021214400F051F8204610BDFFF7E7BF10B5431E0A44F0
:40214000914204D011F8014B03F8014FF8E710BD03460244934202D003F8011BFAE77047194B10B51C68A36BD3B9182000F06EF843F20E33A06303804AF6CD33438041F280
:40218000342383804EF26D63C3804DF6EC630381052343810B23838101220023C0E90423A16B0A4C0B6948695C43094A02FB0040A3FB02230132034443F10003C1E904232D
:4021C00023F0004010BD00BF7882FF1F2DF451582D7F954CF0B58BB003460F466D461A4C04F1200E2E4620686168083403C674453546F7D1217920683171911E22293060C3
:402200004FF0000001D938701CE07D1EB3FBF2F402FB14330AAE334413F8283C411C05F8013F23460CB10846F0E77C543A18C11A8B4206DAF95C1478FC5402F801190133C8
:40224000F5E738460BB0F0BD1E280000024B0146186800F003B800BF7882FF1F70B5CD1C25F0030508350C2D38BF0C25002D064601DBA94202D90C23336046E000F05CF8B0
:40228000234B1C681A462146A1B10B685B1B0ED40B2B03D90B60CC18CD501EE08C420BBF63684B681360636018BF0C4615E00C464968E9E7174C23681BB9304600F02CF843
:4022C00020602946304600F027F8431C18D0C41C24F00304A0420DD12560304600F02DF804F10B00231D20F00700C31A0ED05A42E25070BD211A304600F00EF80130EBD1B7
:402300000C233360304600F018F8002070BD00BF3883FF1F3483FF1F38B5064C0023054608462360FEF7BEFC431C02D1236803B12B6038BDEC86FF1F70477047000000008F
:40234000FF000000F40100FF0000F4010000FF00F401000000006400FFFFFF006400000000006400FFFFFF006400000000006400FFFFFF0064000000FC60DAF266B6BEE050
:40238000FEF6EE3E9C7A9E8E0100000000000000205265616374696F6E20746573742070726F6772616D20726F756E6420000000207072657373206F6E65206F6620746865
:4023C000652074776F20627574746F6E7320746F2073746172742E2E2E200A200A0000002046696E616C2053636F72652069733A2000000020417665726167652074696DDF
:402400006520696E206D733A20000000202A2A2A2A2A2A2A2A2A2A2A2A2A2A2A2A2A2A2A2A2A2A2A2A2A2A2A2A2A2A2A2A2A2A2A2A2A2A2A2A2A2A2A2A2A2A2A2A2A2A2A68
:402440002A2A2A200A000000205265616374696F6E2074696D6520696E206D733A2000000A200A00203D3D3D3D3D3D3D3D3D3D3D3D3D3D3D3D3D3D3D3D3D3D3D3D3D3D3D7C
:402480003D3D3D3D3D3D3D3D3D3D3D3D3D3D3D3D3D3D3D3D3D3D3D3D3D3D3D3D200A0000204F6F7073202D20696E636F727265637420627574746F6E20707265737365647D
:4024C000200A0000204772656174202D20636F727265637420627574746F6E2070726573736564200A00000020546F6F20536C6F777C200A00000000405100403000F05145
:402500000040100000000140001000140140000800400140000A004C014000020050014020000000FF00010102020202030303030303030304040404040404040404040481
:402540000404040405050505050505050505050505050505050505050505050505050505050505050606060606060606060606060606060606060606060606060606060603
:40258000060606060606060606060606060606060606060606060606060606060606060606060606070707070707070707070707070707070707070707070707070707077F
:4025C000070707070707070707070707070707070707070707070707070707070707070707070707070707070707070707070707070707070707070707070707070707071B
:40260000070707070707070707070707070707070707070707070707070707070707070707070707010000002C260000000000000100000001000000020000000000000047
:40264000FFFFFFFF03000000000000000000000041060000FFFFFFFF00000000030000000000000000000000FFFFFFFF00000000040000000000000000000000FFFFFFFF19
:40268000000000000000000000000000000000000100000000000000000000000200000000000000000000000300000000000000000000000100000002000000030000000E
:4026C0000000000001000000020000000300000010270000000000000000000000000000010000000000000000000000000000000100000001000000010000000100000098
:40270000010000008000000010000000010000002000000040000000010000000200000004000000010000001000000001000000200000004000000079050000BD050000EE
:402740003D0600000506000011060000091F0000091F0000091F0000091F0000091F000000000000000000000100000000000000000000000000000052616E645F54696D1D
:4027800065000000616C726D5F316D7300000000616C726D5F31306D73000000616C726D5F476C6F77696E6774696D650000000065765F427574746F6E00000065765F5477
:4027C000696D654F7574000065765F546F6F536C6F77000074736B5F496E69740000000074736B5F436F6E74726F6C0074736B5F4261636B67726F756E64000074736B5F1C
:402800004C4544735F466164696E670074736B5F5247425F476C6F77696E67004300303132333435363738396162636465666768696A6B6C6D6E6F7071727374757677786A
:40284000797A0000F8B500BFF8BC08BC9E4670474D000000210D0000F8B500BFF8BC08BC9E4670472900000078280000C880FF1FB80100007004000000000000FFFF0A0088
:40288000F086FF1F7827000084270000902700009C27000000000000FFFFFFFFFFFFFFFFFFFFFFFFFFFFFFFFFFFFFFFFFFFFFFFF01000000020000000300000004000000CE
:4028C000FFFFFFFF00000000040000000000000005000000060000000100000001000000010000000100000001000000FFFFFFFFFFFFFFFFFFFFFFFFFFFFFFFFFFFFFFFFDC
:40290000FFFFFFFFFFFFFFFFFFFFFFFFFFFFFFFFFFFFFFFFFFFFFFFFFFFFFFFFFFFFFFFFFFFFFFFFFFFFFFFFFFFFFFFFFFFFFFFFFFFFFFFFFFFFFFFFFFFFFFFFFFFFFFFFD7
:40294000FFFFFFFFFFFFFFFFFFFFFFFFFFFFFFFFFFFFFFFFFFFFFFFFFFFFFFFFFFFFFFFFFFFFFFFFFFFFFFFFFFFFFFFFFFFFFFFFFFFFFFFFFFFFFFFFFFFFFFFFFFFFFFFF97
:40298000FFFFFFFF0300000003000000030000000300000003000000B0270000BC270000C8270000D4270000E0270000EC270000FC2700000C280000EC86FF1F0000000067
:4029C000C084FF1F0000000000000000000000000000000000000000000000000000000000000000000000001C280000000000000000000000000000000000000000000031
:402A0000000000000000000000000000000000000000000000000000000000000000000000000000000000001882FF1F0000000000000000000000000000000000000000DE
:402A40000000000000000000000000000000000000000000000000000000000000000000000000000000000000000000000000000000000000000000000000000000000056
:402A80000000000000000000000000000000000000000000000000000000000000000000000000000000000000000000000000000000000000000000000000000000000016
:402AC00000000000000000000000000000000000000000000000000000000000000000000000000000000000000000000000000000000000000000000000000000000000D6
:402B00000000000000000000000000000000000000000000000000000000000000000000000000000000000000000000000000000000000000000000000000000000000095
:020000040003F7
:0200000480007A
:4000000008520040016400400265004042020140200301403F04014022050140040701403E08014031090140010B0140010D014009150140491601402C17014058180140E7
:400040004A1901405F1A0140501B0140024001400E41014008420140034301400945014003460140034701400148014003490140114C01400D4D0140075001400151014032
:400080000080014008A909951011113161806440887289388A0F0701080118012202230124012C0133013401360238203E104010410645014620480949FF4AFF4BFF4DA08D
:4000C0004F0450185280580459045A045B045F01604062C06440654066C068C06AC06CC06EC08601A601B601C020C106C501C702C811C9FFCAFFCBFFCDA0CF04D018D8046D
:40010000DA04DC01DD01DF01E040E2C0E440E540E6C0E8C0EAC0ECC0EEC0000407080D201020140216A01A021D801FA027202F803F084004458048284F28500857105C10DD
:400140005E40768087288A018C12C044C240C4B4CA80CE40D014D224D63002010301120222013001340237014030410249FF4AFF4BFF4DA04F0450185280580459045A0461
:400180005B045C115D105F01604062C06440654066C068C06AC06CC06EC096029A02AE01B002B201C030C102C501C620C809C9FFCAFFCBFFCDAFCE0FCF04D018D280D804B4
:4001C000DA04DB04DF01E040E2C0E440E540E6C0E8C0EAC0ECC0EEC001020A400D080F081302178018041B021C101D081E80230238024010412045284F0855207001778007
:400200009404A702A920AA40AC02AF22B220C008C268C488CE01D066E808EC8096409B029D02AE4001080205040605040601090C0C080D1F11131206130C150318081B139A
:400240001E02210F220123102408250229012A032D0C2F1332083407351C370F3A203BA056025710580459045B045C225D205F0188038A048D018E089003920C970198039F
:4002800099019A04A205A80AAA04AD02B00FB103B902BA02D280D804D904DB04DC22DF01020604100525070109200A400D010E040F021004124016401714188019011A40B9
:4002C0001C101D201E0821012202265027022A402FA630043124331035203608370238803D403E2A5F406D206E046F057102762A8601C0B3C2DAC47ACAF8CCE6CEF8D610FD
:40030000E402E808E0208908A508A9A0AB20AC04E801EA04EC02EE014040410645104620480A49FF4AFF4BFF4DA04F0450185A045D015F01604062C06440654066C068C065
:400340006AC06CC06EC0840185048B018E0193019504960299049A019E02A401AB02AD04B002B102B301B504B601B880BA20BE01BF10C040C106C610C702C818C9FFCAFF30
:40038000CBFFCDA0CF04D018D280D804D904DA04DB04DC12DD11DF01E040E2C0E440E540E6C0E8C0EAC0ECC0EEC00004018009080A091104180419101A812008210122015F
:4003C000232029A031103205382039044101470248084D024F2050185710724081108E409104920896409B029D02AD04AE04C005C207C404CA0CCC07CE06D081D224E404C5
:40040000EE0A0110021804180508060609180A010C020E0C0F80119C134315031601180219981A1C1B271DE71E101F182181220625022B672DFF321E33F8351C36013703B7
:400440003A083B083E404003474049FF4A074BFF4C404D204EF04F0550085280580459045A045B045C225D125F01604061A86240632087018B019201B101B401C020C106D1
:40048000C610C702C818C9FFCAFFCBFFCDA0CF04D018D418D804D904DA04DB04DD20DF01E040E2C0E440E540E6C0E8C0EAC0ECC0EEC004820504070809020E080F22164058
:4004C00018041D442201271A2D602FA034803501361838243D803E2A4004450848084C014E0250185501564057015B0261406220680469066A8070027201732477408140A3
:40050000824083208404860189048E2090809204954096029748988099209A2A9D049E44A112A216A608A723AC80AE50AF80C0F0C2E8C410CAF0CCF0CEF6D044D204D6019D
:40054000D80CE019E403002804380604070109020C200E180F0114011606190120202418262227012C122D012E203001323E330237013E013F444051410646EB470C481C53
:4005800049FF4AFF4BFF4EF04F44500C5401580459045A045B045C025D225F0166C06A406B028144833A840285EC89EC8C03952097C1980399889B26A201B103B203B30C1C
:4005C000B5E0B710B808BE04BF01C046C105C203C401C6C0C70EC818C9FFCAFFCBFFCC62CDA0CEF0CF41D00CD804D904DA04DC20DD02DF01E640E702E910EA30EB10ED10C0
:40060000EE10EF12000401800280048405C40A100C100E08101011021202164019021A101D082244254027542944301036083714380839803A403B203D203E064140433031
:400640004480474849404A044D605004528453105408571058205A885B0260206204810288088A028B969080914092049708988099249A409B089E04A111A206A548A608F7
:40068000A7B0A901AB52AF44B002B101C0ADC244C41DCA0ACC64CEEED0D8D23CD60FE404E620E8033380CC1006010B200F105C02630486088704A780C080C230D680D840D8
:4006C000E010E2409C02A608AA01AF90B310E820EC40EE10A608AC02EE4052205E80620866048A20D404D604D803E0049E04A640AE0886409E04A640A6080208A608C04002
:400700005101522057085B045C1062086404668080108304862889019E04D407D607D803E0041040700180018840AA04AE80B004B308C408DC01E201E804EC0100070803DF
:400740000A030C0510071A061C07000338C0C000C000000080004080800080000000000000FFFF00FF0000000039390039000000042020000000000000000000000000005A
:400780000000000000000000000000000000000000000000000000000000000000000000000000000000000000000000000000000000000000000000000000000000000039
:4007C00000000000000000000000000000000000000000000000000000000000000000000000000000000000000000000000000000000000000000000000000000000000F9
:4008000000000000000000000000000000000000000000000000000000000000000000000000000000000000000000000000000000000000000000000000000000000000B8
:400840000000000000000000000000000000000000000000000000000000000000000000000000000000000000000000000000000000000000000000000000000000000078
:0200000490006A
:0400000000004007B5
:0200000490105A
:04000000BC90ACAF55
:0200000490303A
:020000009F9FC0
:0200000490402A
:4000000000000000000000000000000000000000000000000000000000000000000000000000000000000000000000000000000000000000000000000000000000000000C0
:400040000000000000000000000000000000000000000000000000000000000000000000000000000000000000000000000000000000000000000000000000000000000080
:400080000000000000000000000000000000000000000000000000000000000000000000000000000000000000000000000000000000000000000000000000000000000040
:4000C0000000000000000000000000000000000000000000000000000000000000000000000000000000000000000000000000000000000000000000000000000000000000
:0200000490501A
:0C00000000012E16106900012E27B00828
:00000001FF