:400000000080002011000000BD060000BD06000008B5044B1A6803F53F5302331A6000F055FB00BFFA46004010B5054C237833B9044B13B10448AFF300800123237010BDA1
:400040005882FF1F00000000F4150000084B10B51BB108490848AFF300800848036803B910BD074B002BFBD0BDE81040184700BF000000005C82FF1FF4150000C880FF1FCE
:400080000000000008B5032812D8DFE800F00205080B00F089FB07E000F08EFB04E000F093FB01E000F098FB431E5842584108BD002008BD10B50C46032822D8DFE800F0D2
:4000C0000E141B020020FFF7F5FF21460120FFF7F1FF21460220FFF7EDFF0AE0084600F083FB094B1C7004E0084600F089FB064B5C70002010BD084600F08EFB024B9C7088
:40010000F7E76FF0130010BD7482FF1FF8B5002425462746094EA755E0B20021FFF7CAFF0134002818BF0546032CF4D100F012FC00F0DAFB00F0A2FB2846F8BD7482FF1F26
:4001400008B503282CD8DFE800F0020C1621164B187810F1FF3018BF0120187000F044FB12E0114B587810F1FF3018BF0120587000F046FB08E00C4B987810F1FF3018BF32
:400180000120987000F048FB002008BD0020FFF7D7FF0120FFF7D4FF0220FFF7D1FFF3E76FF0130008BD00BF7482FF1F0F2938B505460C460BD800F0E5FA064B185D064BD1
:4001C0005C55064B585500F0E9FA002038BD6FF0130038BDF8150000CC80FF1F7782FF1F08B5054BFF221A5400F0CCFA002000F0D5FA002008BD00BFCC80FF1F08B5002057
:40020000FFF7EEFF0120FFF7EBFF002008BD00230170437083701846704743788B4238BF417000207047F8B50478054634B1012C0BBF012400240226032600E02646AB7846
:400240009BB96F7857B13046FFF77AFF69782046FFF7ACFF6B78013B6B7006E02046FFF7BFFF39463046FFF725FFAB78012B08D13046FFF765FF2046BDE8F8400E21FFF705
:4002800095BFF8BD012383708B7070470D4B1B68DBB20F2B0FD9103B23F0030202F1604202F56442DB0003F018031268E02098401040D840704703BF034B1868000E002035
:4002C000704700BF04ED00E020ED00E0002000F0D5BC0000684620F007018D4631B572B6EFF31185FFF7D2FF80F311880E4B1A681C460132012A1A6001D101F003F862B64C
:40030000FFF7E4FF72B685F3118800F067FE2368013B23601BB900F0FEFF00F0C2FF62B6BDE8314085467047CC82FF1F08B562B645F6BF52094B00201A6053F8042C42F0C2
:40034000020243F8042C53F8042C42F0050243F8042C00F0E1FE00BEFDE700BF14E000E008B5FFF7D3FEFFF749FF01210E48FFF74EFF00210D48FFF74AFF00F05BFF6422E9
:400380001146002000F054FB4FF4FA721146012000F04EFB012000F0EBFA022000F0E8FABDE8084000F02CBFCE80FF1F7982FF1F07B500230193072000F056FD01A9012048
:4003C00000F0C8FC019800F09FFC0020FFF75AFE0128014602D11248FFF71FFF0120FFF751FE0128014602D10E48FFF716FF0220FFF748FE012803D10A490948FFF742FFC6
:40040000019B9A0703D505210548FFF706FF019B5B07D0D505210348FFF7FFFECBE700BFCE80FF1F7982FF1F08B50548FFF7FBFE0448FFF7F8FEBDE8084000F0E1BE00BFD0
:40044000CE80FF1F7982FF1F00BFFDE708B50020FFF718FE012802D1022100F09BFC0120FFF710FE012804D1BDE80840042100F091BC08BD684620F007018D4631B572B6E7
:40048000EFF31185FFF702FF80F311880E4B1A681C460132012A1A6001D100F033FF62B6FFF7D4FF72B685F3118800F097FD2368013B23601BB900F02EFF00F0F2FE62B6E7
:4004C000BDE8314085467047CC82FF1FF8B572B6614D0024062606FB045300219A881868013401F07FF8072CF5D15C4B5C4A5D4D92E8030018605C489980002450F8041F3C
:4005000004F1105303F13C0221F0FF063D33C9B20B4452005B000232934206D012F8027C12F801EC07F806E0F5E7A8420C44E5D14E4A4F4C13784F4D43F002031370137C81
:400540004D4F43F0020313742378A2F5863243F040032370413A1378002643F010031370464B03CBC2F8400DC2F8441D93E8070003C52A80424A0C3303CB1060516003CB3B
:400580001061516103CBA2F55F62C2F8141EC2F8100E13783B4943F0080313703A4B61221A703A4A02231380192518220A704D800A71374A0321137008224FF040231A70D8
:4005C00083F80012334B34491B78DBB20B70334B1A8041F2512223F8022C3B784FF4F07003F0010343EA460600F012FF013D06F003062FD0032EF0D1294B4FF480721A8099
:40060000284907221A70482000220A7088701A70022203F8032C244A244D137843F003031370194B81221A7003F5F723012204331A701F4B1F4A1B78DBB203F007011B0903
:40064000117053701C4B44221A7094E80F0007C52B80F8BDFEE700BF0916000060520040F406004874000048FCFFFF4703500140A0430040C051004025420040FC0600483B
:40068000125100408240004000480040804000400043004008010049A1460040224200400440004006400040A2430040B0430040CF0100496E5800407658004008B500F031
:4006C00065FF03680C2B00D1FEE7FEE780B51148114B0025C0B1A3F1100192C922460439161BB74204D051F8046F42F8046BF7E7114653F8046C8C1AA64202D041F8045BE9
:40070000F9E701381033E5E700F046FFFFF70EFEFEE700BF01000000C4180000104A114B10B41A60104A114C1368114843F4007313600023032B98BF54F823204FEA830149
:4007400088BF0C4A0133302B4250F3D10A4B1A780A4B1A700A4B064A10BC1A60FFF7B6BE0004FA050CED00E014ED00E0000000000080FF1FBD060000BC760040C080FF1FEE
:4007800008ED00E0044A4001137800F0200003F0DF0303431370704730510040014B1870704700BF79650040024B1878C0F3C000704700BF01510040024B1878C0F30010C4
:4007C000704700BF01510040024B1878C0F34010704700BF01510040024B1878C0F38000704700BF31510040044A8001137800F0400003F0BF030343137070470051004071
:40080000044A00F00100137803F0FE0318431070704700BF20510040044A137803F07F0343EAC010C0B21070704700BF005100400C4A137803F0C00343F009031370137FC9
:4008400043F001031377537F43F0010353774FF6FF73A2F89433A2F81434034B00221A80704700BF7C64004050680040024A137843F08003137070477C64004008B5054960
:400880000B781BB9FFF7D4FF01230B70BDE80840FFF7ECBF7C82FF1F0D4A137803F0C00343F009031370D37F43F00103D37792F8203043F0010382F820304FF6FF73A2F876
:4008C0009B33A2F81B34034B00221A80704700BF7D64004058680040024A137843F08003137070477D64004008B505490B781BB9FFF7D2FF01230B70BDE80840FFF7ECBF62
:400900007D82FF1F0D4A137803F0C00343F009031370D37F43F00103D37792F8203043F0010382F820304FF6FF73A2F89933A2F81934034B00221A80704700BF7B640040EF
:4009400054680040024A137843F08003137070477B64004008B505490B781BB9FFF7D2FF01230B70BDE80840FFF7ECBF7E82FF1F70B5EFF3108572B6032841D8234A52F862
:400980002030002B3ED0224C013B42F8203054F82030032B06D1022344F820301D4B002243F8202000F080FB1B4B1B680BB1002029E01A4B1E6800F05BFB431CF7D0184B30
:4009C00018491A6851F820109142F0D9711C1CBF022144F826101449002651F8201044F820600A431A6000F001FB104A52F820401CB142F8206040F0004000F095FCD6E75E
:400A0000032000E0042085F3108870BD1481FF1FB881FF1FA082FF1FCC82FF1FA481FF1FB882FF1FD8170000BC1700008082FF1FF8B5EFF3108672B6012820D80C2303FB84
:400A400000F4134D2D59134C6B43E518E3588B4217D322B1AC68A24213D3934211D381B10D4D0301EC58EF186CB94FF0010E45F803E07A60013900F011F8204604E003204E
:400A800002E0082000E0072086F31088F8BD00BF6817000090170000F482FF1F0C234343184AF0B5D258184B184D03EBC20253685C1C01D150601FE005EB0316B468A142CA
:400AC00003D2641A5060B46016E01C462F4605EB03139A68DB68891A5A1C0AD007EB031202F108069268914201D31C46EFE7521A326005EB0414E06005EB00108160C360A9
:400B0000F0BD00BF68170000DC80FF1FF482FF1F0C214F4A41432DE9F843C60093194D4C5D6852F83030615801338B4242F8303084BF002342F830306C1C00F08780464C42
:400B400004EB05118B68002B7ED12B46274619016318DB68581C04D007EB031080680028F5D04FF0FF30214432448342C860536005D0394A02EB03139A6802449A60374F1F
:400B8000DFF8F480364E0C2303FB0573197A002947D15B6858F8232014235A43B318B25C012A1BD004D3032A3BD1DB68984738E05868032835D82B4A52F820308BB3013B09
:400BC00042F82030284A52F82030032B27D1022342F82030254B43F8201020E0586803281FD8234A52F82020DAB11F4A52F82010032916D0DFF874C0D3F808E05CF82030F4
:400C000043EA0E034CF820301A4B53F820301EEA030F06D0012904D1022342F8203000F043FA2B01E2185168D2F80C9021B101392846FFF733FF00E0E150B9F1FF3F01D066
:400C40004D46A0E7BDE8F883013B8B60BDE8F883DC80FF1F90170000F482FF1F68170000401700001481FF1FB881FF1FA082FF1F9C1700009082FF1F8817000070B5EFF395
:400C8000108572B670BBFFF743FF184B1B680BB1002028E0164B1C6800F0EAF9461CF7D0144B15491A6851F820109142F0D9611C12491CBF022641F82460114C002654F8AE
:400CC000204041F8206022431A6000F08FF90D4A52F820401CB142F8206040F0004000F023FBD5E7032085F3108870BDCC82FF1FA481FF1FB882FF1FD8170000B881FF1F15
:400D0000BC1700008082FF1F30B5EFF3108572B60C4B1B6883B90C4A1268511C0CD00B4951F8221051B10A4C54F8221021EA000144F82210184602E0022000E0012085F313
:400D4000108830BDCC82FF1FA481FF1F9C170000A082FF1F03280FD80B4B53F820306BB10A4B53F82030032B0AD059B1084B53F8203000200B607047032070470120704749
:400D8000072070470E2070479C170000B881FF1FA082FF1FF8B5EFF3108572B6032847D8274A52F82020002A44D0264C54F82060032E41D0244F57F820200A4347F8202009
:400DC000224A52F82020114201D1002035E0012EFBD1022644F8206000F066F91C4B1B68002BF2D11B4B1F6800F042F9431CECD0194B1A491A6851F820109142E5D9791C82
:400E0000174918BF44F8276051F8201000260A431A6044F8206000F0E9F8124A52F820401CB142F8206040F0004000F07DFACCE7032002E0012000E0072085F31088F8BDBC
:400E40009C170000B881FF1FA082FF1F9082FF1FCC82FF1FA481FF1FB882FF1FD8170000BC1700008082FF1F2DE9F74FEFF31083019372B6304B1B68002B51D12F490C684B
:400E80008A46651C4CD02E4A52F82420002A49D02C4A52F82450054046D12B4FDFF8B8B03B685BF82420294E23EA02033B60284BDFF8A89053F82430DFF8A48046F8240057
:400EC00001200B6049F8240048F8240000F0D0F8421C494605D01F4A3B6852F820209A4209D8DAF80000431C1CBF002341F8203040F000400EE05BF8201049F820500B4338
:400F00003B6000F073F858F8201019B148F8205040F0004000F008FA002046F8240004E0022002E0012000E01846019B83F3108803B0BDE8F08F00BFCC82FF1FA481FF1FA7
:400F40009C170000A082FF1FB882FF1F9082FF1FA881FF1FD8170000BC170000B881FF1F8082FF1F70B500F083F8154B461C1B68144C20D0144A154D116855F820508D428C
:400F800019D95D1C124E1CBF022546F82350114B002553F8203046F820501943116000F025F80D4B53F820201AB143F8205040F00040206070BD43F00043236070BD00BFB4
:400FC000A481FF1FD082FF1FB882FF1FD8170000B881FF1FBC1700008082FF1F024B1A680AB100221A607047C082FF1F174918480A88F0B5130AC356164E5C1C0EBF8356C1
:4010000008335BB256F82340134F8E4657F82450124846F82350124E50F824003168346047F82410691C09D10E4C44F82350012404FA03F322EA0302AEF800200A4B0B4A45
:401040001968186042F82010F0BD00BFB482FF1F331600006481FF1FF480FF1FD482FF1FB082FF1F2481FF1FA481FF1FA881FF1F094B0A4A1B88190A5056411C16BF0830E0
:40108000D05640B2431C1FBF054B53F82020054B53F82200704700BFB482FF1F331600006481FF1FD482FF1F134A144B30B553F82010134C136854F823501560114A42F8FA
:4010C00023004FF0FF3244F823200F4A52F82150B5F1FF3F0AD10D4C0D4D55F820502088284320800B4840F8213001E044F8253042F8213030BD00BFB082FF1F0481FF1F70
:40110000F480FF1FD482FF1F2481FF1FB482FF1FD81700006481FF1F2DE9F7462C4B2D4A0446DA622C4A9A632C4ADA63EFF3108372B62B4D2A68002A43D100F07BF8294BF7
:401140001C6001232B609CB1FFF792FF431C34D0254A264B53F8201013680B431360244B002243F82020FFF741FF00F0DDF824E0204F214E3B68DFF87890DFF880A0019380
:40118000019BA342E0D07B6813B153F8240001E04FF0FF3056F820300134013B46F8203059F82030032B01BF022349F8203000234AF82030FFF778FFE2E762B601232B6005
:4011C000FEE783F31088072003B0BDE8F08600BF0080FF1FE9120000AD120000D5020000C882FF1F4084FF1FB882FF1FBC170000B881FF1F341700001481FF1FA082FF1F0F
:4012000008B5EFF3108372B6074A126842B9074B4FF0FF321868064B43F8202000F0DDF883F31088022008BDCC82FF1FA481FF1FE480FF1F38B50F4B1D68EFF3108472B62B
:4012400000F022F80C4A136843F07F4313600B4B2B640B4B1A6822F0E0021A601A6842F020021A60074A136843F00103136084F3108838BD08ED00E020ED00E075040000FB
:4012800000E400E000E100E018484FF47F0102680A43026016486FF07F4102680A400260704714484FF080510160704772B611484FF000610160FFF755FE0F48006800F025
:4012C000D1F858B10C4800684FF080730B4A0C490FB40FB46FF00600004700BF6FF0060062B6004762B600DF08B0704720ED00E01CED00E004ED00E0D082FF1F2913000016
:40130000E5120000EFF30880054908600548006880F3088870470248006880F308887047F081FF1FE481FF1F411C8900154A11440968154A136899421AD0F0B444464D463E
:4013400056465F46F0B400B5104C9B002344EFF308851D60116089002144096881F3088802BC8E46F0BCA046A946B246BB46F0BC002806DB00B500F069F802BC8E46FFF766
:40138000D3BF704708180000BC82FF1FE881FF1FF0B444464D4656465F46F0B400B5EFF3038308B48000174901440968164A0244EFF30883136088471448804704BC4FF055
:4013C0008070024382F3038801BC8646F0BCA046A946B246BB46F0BC704780000A4901440A6882F3088804BC4FF08070024382F3038808BC9E46F0BCA046A946B246BB466D
:40140000F0BC7047E8170000E482FF1F311400000230800803D000BF01380046FCD17047EFF3108072B6704780F31088704700BF08B572B6014B1868FFF7CFFFA481FF1FA8
:40144000014B1868FFF7A4BFA481FF1F08B562B6FFF7F6FF72B600F017F8014B186808BDD082FF1F002809DA054B064A03EB800043681068181A18BF012070470120704727
:4014800008180000BC82FF1F3349344A00202DE9F041136808603248324C50F8231054F82340013140F823102F48A14250F823002E4D01D1032102E09842FBD002212C4F52
:4014C00045F823102B4957F823600C68B84624EA06040C60284C461C54F823400E4614600DD055F82030032B07D1204B022243F82020224B002243F82020FFF7D5FDFFF7A1
:40150000B7FD421C1E4F05D1631C0CD0002345F8243008E01B4A336852F8202000269A4206D845F8246044F000443C60BDE8F08158F8202045F8206013430E4A1360FFF7A6
:4015400055FD114B53F820201AB143F8206040F000403860BDE8F081C082FF1FA481FF1F1481FF1FAC170000E480FF1FB881FF1FBC170000B882FF1FA881FF1FA082FF1FEA
:40158000D082FF1FD81700008082FF1F014B1868704700BF5482FF1F0E4B70B51E460E4C0025E41AA410A54204D056F8253098470135F8E700F06CF9084B094C1E46E41AB2
:4015C000A4100025A54204D056F8253098470135F8E770BD9C1800009C1800009C180000A418000003460244934202D003F8011BFAE7704700000000FC60DAF266B6BEE0F4
:40160000FEF6EE3E9C7A9E8E01405100403000F0510040100000000140001000140140000800400140000A004C01400002005001402000FF00010102020202030303030324
:401640000303030404040404040404040404040404040405050505050505050505050505050505050505050505050505050505050505050606060606060606060606060633
:40168000060606060606060606060606060606060606060606060606060606060606060606060606060606060606060606060606060606070707070707070707070707079D
:4016C000070707070707070707070707070707070707070707070707070707070707070707070707070707070707070707070707070707070707070707070707070707072A
:4017000007070707070707070707070707070707070707070707070707070707070707070707070707070707070707070707070707070700010000003C17000000000000F0
:4017400001000000010000000100000000000000FFFFFFFF00000000030000000000000000000000FFFFFFFF0000000000000000000000000000000001000000000000006A
:40178000000000000100000000000000010000001027000000000000000000000000000001000000000000000000000001000000010000000100000001000000800000006B
:4017C0001000000001000000200000000100000002000000040000000100000010000000010000002000000061030000B10300004904000029040000411400004114000043
:4018000041140000411400000000000000000000010000000000000000000000616C726D5F3130306D7300616C726D5F3530306D730065765F3130306D730065765F426C6E
:40184000696E6B6572427574746F6E310065765F426C696E6B6572427574746F6E320074736B5F496E69740074736B5F436F6E74726F6C0074736B5F4261636B67726F753D
:401880006E640074736B5F4F7574707574004300F8B500BFF8BC08BC9E4670474D0000001D070000F8B500BFF8BC08BC9E46704729000000C8180000C880FF1F9001000062
:4018C000F00300000000000000000000FFFF0100000000001C1800002718000000000000FFFFFFFFFFFFFFFFFFFFFFFFFFFFFFFFFFFFFFFF01000000020000000300000091
:40190000FFFFFFFF0000000004000000000000000500000001000000010000000100000001000000FFFFFFFFFFFFFFFFFFFFFFFFFFFFFFFFFFFFFFFFFFFFFFFFFFFFFFFFBA
:40194000FFFFFFFFFFFFFFFFFFFFFFFFFFFFFFFFFFFFFFFFFFFFFFFFFFFFFFFFFFFFFFFFFFFFFFFFFFFFFFFFFFFFFFFFFFFFFFFFFFFFFFFFFFFFFFFFFFFFFFFFFFFFFFFFA7
:40198000FFFFFFFFFFFFFFFFFFFFFFFFFFFFFFFFFFFFFFFFFFFFFFFFFFFFFFFFFFFFFFFFFFFFFFFFFFFFFFFFFFFFFFFFFFFFFFFFFFFFFFFFFFFFFFFF030000000300000059
:4019C0000300000003000000321800003B1800004D1800005F1800006818000074180000831800004486FF1F000000001884FF1F000000000000000000000000000000001F
:401A000000000000000000000000000000000000000000008E1800000000000000000000000000000000000000000000000000000000000000000000000000000000000000
:401A40000000000000000000000000000000000000000000F481FF1F00000000000000000000000000000000000000000000000000000000000000000000000000000000D3
:401A80000000000000000000000000000000000000000000000000000000000000000000000000000000000000000000000000000000000000000000000000000000000026
:401AC00000000000000000000000000000000000000000000000000000000000000000000000000000000000000000000000000000000000000000000000000000000000E6
:401B000000000000000000000000000000000000000000000000000000000000000000000000000000000000000000000000000000000000000000000000000000000000A5
:401B40000000000000000000000000000000000000000000000000000000000000000000000000000000000000000000000000000000000000000000000000000000000065
:020000040003F7
:0200000480007A
:400000000452004002640040016500404C060140400701404C08014036090140500A01402B0B01403B0C01401C0D01400615014057160140441701402C18014038190140ED
:400040000B1B01400240014006410140044201400743014005450140044601400247014003480140034901400C4C01400E4D0140075001400151014008C909531030111055
:40008000860F897288380110020C0604070308010E0A110113061401190C1A021B031C011D011F0E2206230C2401280C2A022B08300E330F3401351038203A023B083E1067
:4000C0003F1040434105450B46C047E0482949FF4AFF4BFF4EF04F44500C5401580459045A045B045C115D115F0166C06A406B028208840386048B018C038D018E0C90033E
:40010000910192049701A605A701A80AAA04B00FB101BA02BF01D804D904DC01DF01004001020210048005020620070409020E210F041208130414A0172018C019011C0859
:400140001D021E8023402608272828102D022E202F0831023209348035013640372038903A903D013E023F04441046804E014F0856125C105D015F488120820584048F04A2
:400180009020A810C0FDC2E8C476CAA2CCB3CECCD0C0D210D6F0E205E410E601EA04011203040703091C0D090F04130319031F03211C250329072B183103371C40304106ED
:4001C00049FF4AFF4BFF4DA04F04501859045A045C105F01604062C06440654066C068C06AC06CC06EC0840189018C018D019901A401AC01B001B501BE01C020C103C51063
:40020000C702C812C9FFCAFFCBFFCDAFCE0FCF04D018D602D713D804D904DA04DB04DC10DD10DF01E040E2C0E440E540E6C0E8C0EAC0ECC0EEC00044018003201222190128
:4002400021102304258026012C802F2833103580362239903C813D103F0440084104470849024E0851045208580859015B0869906B14702871607301808082208314944442
:40028000952097049B089D42A222A408A520AB02B204C005C405CAE0CCB4CEFCD046D220D6010106030104070501070608010A060B010C070D060F0110041506180219028B
:4002C0002601280629072C062D042E01300731073B024030410149FF4AFF4BFF4DA04F045018580459045A045C115F01604062C06440654066C068C06AC06CC06EC08A02B9
:400300009A02AE01B201B402BB20C030C105C501C602C805C9FFCAFFCBFFCDAFCE0FCF04D018D280D804D904DA04DB04DC10DF01E040E2C0E440E540E6C0E8C0EAC0ECC06B
:40034000EEC0004002240410080109200F0810081202130417401B021C101E04210122022620280129503008312035103620384439223A044010438447044F8857C0774099
:400380009B089D02B202B640C047C24AC487CA0CCC06CE0FD04AD210030135014060410249FF4AFF4BFF4DA04F045018528059045A045B045F01604062C06440654066C055
:4003C00068C06AC06CC06EC0860292019B01A301A602B002B101B401C020C106C501C702C811C9FFCAFFCBFFCDAFCE0FCF04D018D280D804D904DA04DB04DF01E040E2C04D
:40040000E440E540E6C0E8C0EAC0ECC0EEC000040902102018041A401B10220225202708290231203C024004460448284F205008520471027401C004C208C404CA01CC04FB
:40044000CE80D024D22488019C01AA20AC10E808EA040110030C05140C03100311091310191C1A011B021F03210C231128022910311F340338203E104002470449FF4A077C
:400480004BFF4C404D204EF04F055008580459045A045C105D015F01604061A86240632085038B108C01910293099B109C01A103A402A704AA01AD01AF0AB003B103B310A8
:4004C000B70CB802BF44C034C106C202C401C50CC6E0C809C9FFCAFFCBFFCC62CDA0CEF0CF41D00CD804D904DA04DC11DD01DF01E640E702E910EA30EB10ED10EE10EF12F5
:40050000004004C006020A030C100E800F041324172019021D2020212102274028012A092E012F083020310235023760382039203A043E023F08400141104220430145202E
:40054000482049204F0452205708834086208A108D0290A09202970499209A0D9B219C109D02A240A304A610A708B209B301B420C081C251C446CAABCCB5CEC6D02FD20440
:40058000E080E403E840EC8005010F011301160119011D022A0132013302350139203E043F045418580459045B045C105D105F01801C8262847F88678A188C248E809060C0
:4005C00094409A639E04A010A408A818AC7CAE01B01FB478B680BA22D804DB04DC01DF01008001220220080209080A010B040E201028120213011608184419221A011F0495
:4006000024202610348036223C445E026640670869026AA8700271807220730880828210860887088C018D08930594459802A028A223A440B002B180B30CC00FC22FC44F8E
:40064000CCB0CE50D680D830E00CE414EA20EE208840A440A804A980AE44B101B220B410B640E620EC093010CC1005100B100C089C10C080C230931099109C10A008841068
:400680008C08931099109C10A008E64050206681D404D601D801A420B280B601EC06B020EC048910B310B51001109510C0405381570858045C146320671080048301840442
:4006C000D407D607D8031020750188209901AB10AF80B318B410B501C408DE04E604E80CEC0300030A020C030E0110021A021C0200030000808000004000000038C0C00061
:400700000000000080004080800080000000000000FFFF00FF000000003939003800000004202000000000000000000000000000000000000000000000000000000000008E
:400740000000000000000000000000000000000000000000000000000000000000000000000000000000000000000000000000000000000000000000000000000000000079
:400780000000000000000000000000000000000000000000000000000000000000000000000000000000000000000000000000000000000000000000000000000000000039
:4007C00000000000000000000000000000000000000000000000000000000000000000000000000000000000000000000000000000000000000000000000000000000000F9
:4008000000000000000000000000000000000000000000000000000000000000000000000000000000000000000000000000000000000000000000000000000000000000B8
:0200000490006A
:0400000000004007B5
:0200000490105A
:04000000BC90ACAF55
:0200000490303A
:02000000E0110D
:0200000490402A
:4000000000000000000000000000000000000000000000000000000000000000000000000000000000000000000000000000000000000000000000000000000000000000C0
:400040000000000000000000000000000000000000000000000000000000000000000000000000000000000000000000000000000000000000000000000000000000000080
:400080000000000000000000000000000000000000000000000000000000000000000000000000000000000000000000000000000000000000000000000000000000000040
:4000C0000000000000000000000000000000000000000000000000000000000000000000000000000000000000000000000000000000000000000000000000000000000000
:0200000490501A
:0C00000000012E16106900012E21F07A7C
:00000001FF